:020000040800F2
:10000000D0F70120C101000881780008837800083A
:10001000877800088B7800088F78000800000000BF
:1000200000000000000000000000000093780008BD
:100030009578000800000000A50A010851A10008F9
:10004000DB010008DB010008DB010008DB01000820
:10005000DB010008DB010008DB010008DB01000810
:10006000DB010008DB010008DB010008DB01000800
:10007000DB010008DB010008DB010008DB010008F0
:10008000DB010008DB010008DB010008DB010008E0
:10009000DB010008DB010008DB010008DB010008D0
:1000A000DB010008DB010008DB010008DB010008C0
:1000B000DB010008DB010008DB010008DB010008B0
:1000C000DB010008DB010008DB010008DB010008A0
:1000D000DB010008DB010008DB010008DB01000890
:1000E000DB010008DB010008DB010008DB01000880
:1000F000DB010008DB010008DB010008DB01000870
:10010000DB010008DB010008DB010008DB0100085F
:10011000DB010008DB010008DB010008DB0100084F
:10012000DB010008DB010008DB010008DB0100083F
:10013000DB010008DB010008DB010008DB0100082F
:10014000DB010008DB010008DB010008DB0100081F
:10015000DB010008DB010008DB010008DB0100080F
:10016000DB010008DB010008DB010008DB010008FF
:10017000DB010008DB010008DB010008DB010008EF
:10018000DB010008DB010008DB010008DB010008DF
:10019000DB010008DB010008DB010008DB010008CF
:1001A000732E0008DB0100087B2E0008DFF80CD05E
:1001B00010F0E2FB0048004777770008D0F70120F5
:1001C0000648804706480047FEE7FEE7FEE7FEE7F1
:1001D000FEE7FEE7FEE7FEE7FEE7FEE7B57900088B
:1001E000AD010008F648006840F00100F4490860DD
:1001F0000020F34908310860F1480068F1490840DF
:10020000EF490860F048091D0860F048EC49843166
:100210000860ED481038091D0860E948006820F4BE
:100220008020E74908600020E5490C310860E44976
:100230008C31086070470021E14A921C1170114610
:100240000870704710B501460022002300204A11B3
:10025000012A02D1DA4C236808E0022A03D1D84CE3
:100260007034236802E0D64C7434236801F01F0216
:10027000012494401C400CB1012000E0002010BD7E
:1002800038B5002000900024002500BF3120FFF782
:10029000D9FF05460098401C00900098B0F5A04F8B
:1002A00001D0002DF2D03120FFF7CCFF08B101249E
:1002B00000E00024204638BD01460020C04A1068F6
:1002C00020F0F80040EAC10010607047C0490860A3
:1002D00070470021BA4A703211701170012802D0A3
:1002E00004280AD104E00121B54A7032117005E0FA
:1002F0000521B34A7032117000E000BF00BF7047A3
:10030000B4490860704770B5049C41EA8215012623
:10031000C6EB530645EA0645054345EA0465A84E83
:10032000361D356070BDAA490866704710B5830157
:1003300043EA016343EA0273A14C8434236010BD95
:10034000A3498866704710B5830143EA016343EA15
:1003500002739B4C8834236010BD9D490867704729
:100360009B49C864704702460020954B08331868C3
:1003700020F0EC6042EA01031843914B0833186007
:100380007047024600208E4B0833186820F07840F2
:1003900042EA010318438A4B08331860704701464C
:1003A0000020874A0832106820F0030008431060DC
:1003B000704783480830006800F00C007047014621
:1003C00000207F4A0832106820F0F00008431060D7
:1003D0007047014600207A4A0832106820F4E05045
:1003E00008431060704701460020754A08321068C3
:1003F00020F4604040EAC10010607047F0B5002171
:10040000002200240225002602236D4F08373F6892
:1004100007F00C0121B1042905D0082937D105E0E6
:100420006D4F076036E06D4F076033E0644F3F1D4E
:100430003F68C7F38056624F3F1D3F6807F03F0398
:100440006EB1664FB7FBF3F7DFF874C10CF1040C23
:10045000DCF800C0CCF3881C07FB0CF40CE05E4F0A
:10046000B7FBF3F7DFF858C10CF1040CDCF800C05F
:10047000CCF3881C07FB0CF4514F3F1D3F68C7F3BA
:1004800001477F1C7D00B4FBF5F7076002E0524F87
:10049000076000BF00BF4A4F08373F6807F0F00110
:1004A00009094F4F7A5C0768D7404760444F0837C7
:1004B0003F6807F4E051890A494F7A5C4768D740A2
:1004C00087603F4F08373F6807F46041490B444F4E
:1004D0007A5C4768D740C760F0BD002100F44072E5
:1004E000B2F5407F0AD1364A0832116821F4F8117A
:1004F0003C4A02401143324A08321160304A70329D
:100500001268C0F30B031A432D4B70331A60704707
:1005100030494439086070472E49403908607047B7
:1005200031490860704701460020254A8C32106826
:1005300020F4401008431060704701460020204A14
:100540008C32106820F44000084310607047014668
:1005500000201B4A8C32106820F01F004A1E1043F6
:10056000174A8C321060704701460020144A8C32C2
:10057000106820F4F8504A1E40EA0220104A8C32DB
:1005800010607047014600200D4A8C32106820F43C
:10059000403008431060704714490860704739B113
:1005A000074A303212680243054B30331A6006E0C6
:1005B000034A303212688243014B30331A6070476D
:1005C00000380240FFFFF6EA10300024003000201F
:1005D00000004742800E47420024F40000127A00D7
:1005E00000000020FFFCFF0F5C014742E011474282
:1005F00029B1934A12680243914B1A6004E0904A71
:10060000126882438E4B1A60704739B18C4A121DB2
:10061000126802438A4B1B1D1A6006E0884A121DAD
:1006200012688243864B1B1D1A60704739B1844A99
:100630000C3212680243824B0C331A6006E0804A87
:100640000C32126882437E4B0C331A60704739B10A
:100650007B4A103212680243794B10331A6006E06D
:10066000774A103212688243754B10331A60704714
:1006700039B1734A243A12680243714B243B1A6021
:1006800006E06F4A243A126882436D4B243B1A609D
:10069000704739B16A4A203A12680243684B203BDE
:1006A0001A6006E0664A203A12688243644B203B97
:1006B0001A60704739B1624A1C3A12680243604BB3
:1006C0001C3B1A6006E05E4A1C3A126882435C4B8F
:1006D0001C3B1A60704739B1594A143A12680243F8
:1006E000574B143B1A6006E0554A143A126882438D
:1006F000534B143B1A60704739B1514A103A126893
:1007000002434F4B103B1A6006E04D4A103A126804
:1007100082434B4B103B1A60704739B1484A1C3238
:1007200012680243464B1C331A6006E0444A1C32EE
:1007300012688243424B1C331A60704739B1404AF9
:100740002032126802433E4B20331A6006E03C4AD6
:100750002032126882433A4B20331A60704739B115
:10076000374A243212680243354B24331A6006E0BC
:10077000334A243212688243314B24331A60704763
:1007800039B12F4A2C32126802432D4B2C331A6098
:1007900006E02B4A2C3212688243294B2C331A6014
:1007A000704739B1264A303212680243244B303345
:1007B0001A6006E0224A303212688243204B3033FE
:1007C0001A607047012808D11D493C31096841F081
:1007D00008011B4A3C32116007E019493C310968A5
:1007E00021F00801164A3C321160704739B1144AB1
:1007F000273A12780243124B273B1A7006E0104A40
:10080000273A127882430E4B273B1A7070470C48E8
:100810004030006840F080700949403108607047FE
:1008200001460020064A283A12680A400AB101200F
:1008300000E0002070470249263908707047000028
:100840003438024010B504469848844208D101214A
:100850000846FFF70DFF00210120FFF709FF76E0B2
:100860009348844208D101210220FFF701FF0021B3
:100870000220FFF7FDFE6AE08E48844208D1012184
:100880000420FFF7F5FE00210420FFF7F1FE5EE0F3
:100890008948844208D101210820FFF7E9FE0021A0
:1008A0000820FFF7E5FE52E08448844208D1012188
:1008B0001020FFF7DDFE00211020FFF7D9FE46E0F3
:1008C0007F48844208D101212020FFF7D1FE00217A
:1008D0002020FFF7CDFE3AE07A48844208D101217A
:1008E0004020FFF7C5FE00214020FFF7C1FE2EE0AB
:1008F0007548844208D101218020FFF7B9FE00210C
:100900008020FFF7B5FE22E07048844208D1012123
:100910008015FFF7ADFE0021A015FFF7A9FE16E038
:100920006B48844208D101214015FFF7A1FE002148
:100930006015FFF79DFE0AE06648844207D1012159
:100940000015FFF795FE00212015FFF791FE10BD61
:10095000F0B50A4600210023002400BF3DE0012538
:1009600005FA01F3156805EA03049C4234D10568D1
:100970004F000326BE40B543056015794E00B540D3
:100980000668354305601579012D02D01579022DD1
:1009900016D185684F000326BE40B5438560557962
:1009A0004E00B540866835438560456801268E4017
:1009B000B5434560456896798E40B6B2354345608B
:1009C000C5684F000326BE40B543C560D5794E00CB
:1009D000B540C6683543C560491C1029BFD3F0BD7A
:1009E0004FF6FF7101600021017141718171C17188
:1009F000704708B54FF480320092009A0A43009283
:100A0000009AC261C161009AC261C2690092C26962
:100A1000009208BD0246002013690B400BB1012073
:100A200000E0002070470146086980B27047024626
:100A3000002053690B400BB1012000E000207047FB
:100A40000146486980B2704701837047418370470F
:100A50000AB1018300E041837047416170474269F8
:100A60004A4042617047F0B5002300244D07ED0E67
:100A700002FA05F3CE1000F1200555F826504E0776
:100A8000F70E0F26BE40B543CF1000F1200646F802
:100A90002750CE1000F1200555F8265045EA0304F2
:100AA000CE1000F1200545F82640F0BD00000240C0
:100AB0000004024000080240000C02400010024006
:100AC0000014024000180240001C024000200240B6
:100AD000002402400028024010B50121C805FFF79C
:100AE000C7FD00214FF40000FFF7C2FD10BD70B537
:100AF0000021002200230024E14D2D68E14E354005
:100B0000DF4E356035462D6806683543DC4E35606E
:100B100035466D6B25F00705756335466D6B466888
:100B20003543D74E7563456835B9C5682902058ACE
:100B30002A04057D2B0621E04568012D05D1C568F5
:100B40002902058A2A04002318E04568022D05D1F0
:100B5000C56869010569EA0200230FE04568032DB5
:100B600006D1C56869010569AA024569EB0305E07C
:100B7000C568290105692A0245692B0341EA020576
:100B8000866835431D43BE4EB66B3543BC4EB563D8
:100B90008569F56335462D6C6FF30D053564354673
:100BA0002D6CC6693543B64E3564858C2C043546AC
:100BB0006D6C05F04045756435466D6C066A2643DC
:100BC0003543AF4E756470BD002101604160C16066
:100BD0008160016141618161C1610162416270476F
:100BE000A748006840F00100A54908607047A44884
:100BF000006840F00400A2490860704730B1A04985
:100C0000096841F002019E4A116005E09C490968AB
:100C100021F002019A4A11607047F0B500210022CC
:100C20000023002400250026DFF854C20768CCF812
:100C30000C7067463F696FF30D07CCF8107067467C
:100C40003F69D0F804C047EA0C07DFF834C2CCF89B
:100C500010706746FF69DFF830C207EA0C07DFF85B
:100C600020C2CCF81C70C768390107693A02878A2C
:100C70003B04077E3C066746D7F81CC087680F43D5
:100C800017431F4327434CEA070C7D4FC7F81CC08E
:100C90003F6A07F07F47DFF8E8C1CCF82070076AA9
:100CA0003D02878C3E046746D7F820C0C7692F43B2
:100CB00037434CEA070C724FC7F820C0DFF8C0C1B9
:100CC000876ACCF82C70F0BD002101604160816022
:100CD000C160016141618161C16101624162816202
:100CE0007047F0B5002100220023002400250026D3
:100CF000DFF88CC10768CCF814706746BF696FF3E2
:100D00000D07CCF818706746BF69D0F804C047EAF1
:100D10000C07DFF86CC1CCF8187067467F6ADFF803
:100D200068C107EA0C07DFF858C1CCF82470C7681F
:100D3000390107693A02878A3B04077E3C06674609
:100D4000D7F824C087680F4317431F4327434CEA53
:100D5000070C4B4FC7F824C0BF6A07F07F47DFF886
:100D600020C1CCF82870076A3D02878C3E04674694
:100D7000D7F828C0C7692F4337434CEA070C404FC8
:100D8000C7F828C0DFF8F8C0876ACCF83070F0BD2B
:100D90000021016041608160C16001614161816148
:100DA000C161016241628162704730B13449C969F1
:100DB00041F02001324AD16105E03149C96921F091
:100DC00020012F4AD161704730B12D49496A41F065
:100DD00020012B4A516205E02949496A21F020018E
:100DE000274A5162704710B579B1254BDB6C4FF63D
:100DF0000174A343224CE36402022346DB6C42F0FD
:100E0000010423431E4CE36405E01D4BDB6C23F01F
:100E100001031B4CE36410BD19498864704729B174
:100E2000174A12680243164B1A6004E0144A12680B
:100E30008243134B1A60704701460020104A5268E3
:100E40000A400AB1012000E0002070470C49886088
:100E50007047014600200A0A094B5B6813400BB13A
:100E6000012000E00020064B1B680B4013B108B1C5
:100E7000012000E000207047000A014988607047A7
:100E800000B00240FCE0FCFFC000FC0030B943F2BF
:100E9000DB028100A1F1C0410A6005E043F2D20209
:100EA0008100A1F1C0410A606FF07042411C8900CD
:100EB000A1F1C0410A608100A1F1C041C1F8042143
:100EC000704730B50023002100220468A400A4F17B
:100ED000C0442168FE4C2140D0E901452C43C5683F
:100EE0002C4305692C4345692C4385692C43C5690E
:100EF0002C43056A2C43456A2C43856A2C43C56AFA
:100F00002C43056B2C43456B2C4321430468A40000
:100F1000A4F1C04421608468082C0BD10468A400AB
:100F2000A4F1C044246844F040050468A400A4F17E
:100F3000C0442560446BB4F5801F19D10468BCB16E
:100F40004FF02044646824F470034FF02044246878
:100F5000456B2C434FF020452C602C46246844F40C
:100F600080742C60846B248A641E43EA04546C6091
:100F7000846B2468856B6D6844EA0514856BAD68E5
:100F800044EA0524856BAD8944EA0544856B2D8AC6
:100F900044EA0554856B2D7D44EA0564856BAD6993
:100FA0002C4305686D1CAD00A5F1C0452C60846A1A
:100FB000B4F5804F20D10468A400A4F1C044D4F853
:100FC0000421C44C2240C46B2468C56B6D6844EA9C
:100FD0000514C56BAD6844EA0524C56BAD8944EAC8
:100FE0000544C56BAD692C4322430468A400A4F1F9
:100FF000C044C4F8042107E06FF070450468A40001
:10100000A4F1C044C4F8045130BD002101600221A4
:101010004160002181601021C16000210161C16235
:1010200041618161C1614FF48051016249004162B7
:101030000021816201634163A7498163C1637047F5
:1010400051B18200A2F1C042126842F00103820055
:10105000A2F1C042136009E08200A2F1C04212680E
:101060009E4B1A408300A3F1C0431A6070471028BA
:101070000AD118214FF020421166402151664FF0ED
:10108000FC319166D16610E01821954A116040212B
:101090004FF02042C2F884104FF0FC31904A0832E1
:1010A00011604FF02042C2F88C10704730B500211B
:1010B000002200230468102C03D14FF02044216E3D
:1010C00001E0874C2168874C2140446844F00804C3
:1010D00085682C43C5682C4305692C43456944EA5F
:1010E0004524856944EA453421430468102C03D122
:1010F0004FF02044A26E02E0794C083422680022AE
:10110000C4692468C5696D6844EA0524C5692D89E8
:1011100044EA0544C5692D7B44EA0564224304681A
:10112000102C03D14FF02044E36E02E06C4C0C34E1
:1011300023680023046A2468056A6D6844EA05246C
:10114000056A2D8944EA0544056A2D7B44EA056455
:1011500023430468102C05D14FF020442166A26679
:10116000E36608E05E4C21604FF02044C4F888201C
:101170005B4C0C34236030BD1021016000214160C4
:10118000102181600021C160016141618161FC2108
:10119000C2691160C2695160C2699160C269D1605F
:1011A000026A1160026A5160026A9160026AD1604B
:1011B000704799B1102808D14FF02042126E42F0CA
:1011C00004024FF020431A661DE0454A126842F0BF
:1011D00004024FF02043C3F8802014E0102809D106
:1011E0004FF02042126E3D4BDB1E1A404FF0204361
:1011F0001A6608E03A4A1268384BDB1E1A404FF074
:101200002043C3F88020704799B1102808D14FF0CF
:101210002042126E42F040024FF020431A661DE059
:101220002F4A126842F040024FF02043C3F880205A
:1012300014E0102809D14FF02042126E274B3F3B9B
:101240001A404FF020431A6608E0254A1268234BE3
:101250003F3B1A404FF02043C3F8802070470146BF
:101260000020102903D14FF02042506F02E01C4AA9
:101270001432106870471820194920310860002086
:101280000906C1F8A4004FF0FC3015492831086068
:10129000091D0860091D0860704770B50021002213
:1012A000002300240E4D203529680F4D2940056884
:1012B00045F01005466845EA4625866845EA463504
:1012C00029434FF02045C5F8A010054D28350DE005
:1012D0008000E7FF0000F0CF04A80108FEFF0F0028
:1012E000800000A08101F0FFCD01FEFF2A680022EE
:1012F000C5682D68C668766845EA0625C6683689D9
:1013000045EA0645C668367B45EA06652A434FF03E
:101310002045C5F8A820F94D2B68002305692D68E4
:101320000669766845EA06250669368945EA06456E
:101330000669367B45EA06652B434FF02045C5F824
:10134000AC30EE4D2D1D2C68002445692D68466992
:10135000766845EA06254669368945EA06454669BE
:10136000367B45EA06652C434FF02045C5F8B04072
:1013700070BD0021016041608160FC21C268116084
:10138000C2685160C2689160C268D1600269116030
:1013900002695160026991600269D160426911601D
:1013A00042695160426991604269D160704748B1B9
:1013B000D2490C39096841F004014FF02042C2F8CB
:1013C000A01008E0CD490C390968CD4A11404FF012
:1013D0002042C2F8A01070474FF434728100A1F18E
:1013E000C041C1F840216FF07042C4499C3141F8BE
:1013F00020200021C14AA43211605206C2F85411C3
:10140000BE4AAC321160704770B500220021002343
:1014100000240568AD00A5F1C045D5F840216FF363
:101420000E02D0E901563543C66835430669354397
:101430004669354386693543C6693543066A35438F
:10144000466A35432A43056835B90568AD00A5F1FC
:10145000C045C5F8402113E0A84D94352B686FF3C3
:101460000E03D0E907563543466A35432B43A34D57
:1014700094352B600568AD00A5F1C045C5F8402145
:10148000056875BB9D4D9C35066855F8261001F022
:101490007041856A2D686D1E866A7668761E45EAFB
:1014A0000616856AAD686D1E46EA0526856AED68F2
:1014B0006D1E46EA0536856A2D8A6D1E46EA05468A
:1014C000856AAD8A6D1E46EA0556856A2D7E6D1EBB
:1014D00046EA05652943894D9C35066845F826107E
:1014E00032E0FFE7854D9C35066855F8261001F07F
:1014F0007041856A2D686D1E866A7668761E45EA9B
:101500000616856AAD686D1E46EA0526856A2D8A2F
:101510006D1E46EA05452943784D9C352C6804F03C
:101520007044856AED686D1E2E03856AAD8A6D1E56
:1015300046EA05552C434FF02045C5F848416F4D0C
:101540009C35066845F8261070BD00210160416099
:1015500081601021C16040210161802141618900C9
:1015600081610021C161016241621021826A1160C2
:10157000826A5160826A9160826AD160826A116176
:10158000826A5161826A916170470021D0E900232B
:101590001A4383685B1E42EA4312C36842EA43214E
:1015A000564AA432116070470146002029B9534AB7
:1015B000AC32126802F0060005E0504AAC32126804
:1015C00002F01802900870474C49A831096841EAB6
:1015D00040014FF02042C2F8541170474749A431EE
:1015E000096841EA40114FF02042C2F8501170479B
:1015F00061B18200A2F1C042D2F8402142F40073EE
:101600008200A2F1C042C2F840310CE08200A2F197
:10161000C042D2F8402147F6FF531A408300A3F19D
:10162000C043C3F84021704710B552B3102807D10A
:101630004FF020435B6E0B434FF0204463664AE05B
:10164000B0F5807F08D12D4B283B1B680B434FF032
:101650002044C4F884303EE0B0F5805F08D1274BC9
:10166000083B1B680B434FF02044C4F8A43032E021
:10167000224BA8331B680B434FF02044C4F854316D
:1016800029E0102807D14FF020435B6E8B434FF0C9
:10169000204463661FE0B0F5807F08D1174B283BDC
:1016A0001B688B434FF02044C4F8843013E0B0F53E
:1016B000805F08D1114B083B1B688B434FF02044DF
:1016C000C4F8A43007E00D4BA8331B688B434FF0E0
:1016D0002044C4F8543110BD10B502460020002348
:1016E000102A03D14FF02044636E14E0B2F5807FDE
:1016F00008D1024C283C23680DE00000AC0000A09B
:10170000FBFF0F00B2F5805F02D14B4C236802E073
:10171000494CB434236803EA01048C4201D0002010
:1017200000E0012010BD102807D14FF02042526E7A
:101730008A434FF020435A661EE0B0F5807F08D1FF
:101740003D4A203A12688A434FF02043C3F8842070
:1017500012E0B0F5805F07D1374A12688A434FF034
:101760002043C3F8A42007E0334AB03212688A430A
:101770004FF02043C3F854217047F0B502460020D3
:101780000023002400250026102A03D14FF0204713
:101790007B6E12E0B2F5807F03D1274F203F3B687C
:1017A0000BE0B2F5805F02D1234F3B6805E0224F8A
:1017B000B0373B68FF06D7F8584103EA01060AB183
:1017C000012A02D104F0010501E003EAD10515B1B7
:1017D0000EB1012000E00020F0BD102808D14FF02C
:1017E0002042526E22EAD1024FF020435A6621E095
:1017F000B0F5807F09D1104A203A126822EAD1025E
:101800004FF02043C3F8842014E0B0F5805F08D186
:10181000094A126822EAD1024FF02043C3F8A420FB
:1018200008E0054AB032126842F001024FF020434E
:10183000C3F8542170470000A40000A010B504466E
:10184000F848844209D101214805FEF744FF0021F0
:101850004FF40010FEF73FFF18E0F348844209D12F
:1018600001218805FEF737FF00214FF48000FEF7C5
:1018700032FF0BE0ED48844208D10121C805FEF794
:101880002AFF00214FF40000FEF725FF10BD2DE9CF
:10189000FF4704460D460026B1460427DFF8908333
:1018A000A6884FF6C07006406846FEF7A7FDDDF833
:1018B0000880E048B8FBF0F01FFA80F946EA090614
:1018C000A68020884FF6FE71084020800026DA4965
:1018D000286888420CD828684000B8FBF0F087B22E
:1018E000042F00DA04273E4309F10100208427E099
:1018F000E8884BF6FF71884206D1286800EB40006B
:10190000B8FBF0F087B209E0286800EBC00101EBFA
:101910000010B8FBF0F087B247F48047C7F30B0024
:1019200008B947F0010747F4004006434FF49670AA
:1019300009FB00F04FF47A7190FBF1F0401C208419
:10194000A683208840F00100208026884FF6F530DD
:101950000640A8886989084306432680A889298902
:1019600008432081BDE8FF8741F2883101600021F2
:1019700081804BF6FF71C1800021018141814FF4CC
:1019800080418181704721B1028842F001020280CA
:1019900004E002884FF6FE731A400280704729B1B6
:1019A000828C4FF6EF731A40828403E0828C42F0FF
:1019B0001002828470470A460021818C4FF6F07332
:1019C000194002F00F0319438184704721B1028846
:1019D00042F48072028004E002884FF6FF631A40EE
:1019E0000280704721B1028842F40072028004E054
:1019F00002884FF6FF531A400280704712B141F03F
:101A0000010101E001F0FE010182704721B102886D
:101A100042F48062028004E002884FF6FF331A40ED
:101A2000028070470A46002181894FF601731940F0
:101A300002F0FE0319438181704721B1828942F08F
:101A40000102828104E082894FF6FE731A4082818E
:101A5000704721B1028842F04002028004E002880F
:101A60004FF6BF731A400280704721B1028842F4DA
:101A70000042028003E00288C2F30E020280704737
:101A800021B9028842F08002028004E002884FF609
:101A90007F731A4002807047B1F5804F05D0828B6A
:101AA0004BF6FF731A40828303E0828B42F480423C
:101AB00082837047B1F5006F04D1028842F400625E
:101AC000028004E002884FF2FF731A4002807047E0
:101AD000B1F5005F04D1028842F40052028004E0B4
:101AE00002884DF6FF731A400280704721B10288C8
:101AF00042F01002028004E002884FF6EF731A40B1
:101B000002807047018270470146088AC0B2704760
:101B100021B1028842F48052028004E002884EF62D
:101B2000FF731A4002807047B1F5006F04D102883C
:101B300042F40062028004E002884FF2FF731A4010
:101B40000280704721B1028842F02002028004E046
:101B500002884FF6DF731A40028070470146088BF7
:101B60000012704721B1828842F40062828004E052
:101B700082884FF2FF731A408280704721B18288B9
:101B800042F48052828004E082884EF6FF731A404D
:101B90008280704708B502460020009000920098AD
:101BA000084400900098008808BD1AB183880B4350
:101BB000838002E083888B438380704770B5024640
:101BC0000024002500230020958A138B1B0445EA7E
:101BD000030626F07F4404EA01068E4201D101206B
:101BE00000E0002070BD10B5014600200023002257
:101BF0008B8A0A8B120443EA020424F07F4010BD52
:101C00000CB50246002000230193009300920B0FB5
:101C1000019321F07F41019B83B1009B143300931A
:101C200010E000000054004000580040005C0040FC
:101C300000127A0040420F00A0860100090C009BB0
:101C400018330093009B1B680B400BB1012000E090
:101C500000200CBD002221F07F42D34383827047D5
:101C600030B5024600200023948801F0E06504EAC4
:101C7000154321F07F41948A0C4014B10BB101202F
:101C800000E0002030BD002221F07F42D343838258
:101C90007047000010B501218806FEF72DFD0021D8
:101CA0004FF08060FEF728FD10BDF0B50021002246
:101CB0000023002400250026FE4F3F68DFF8F8C30C
:101CC00007EA0C07DFF8ECC3CCF80070078A390488
:101CD00067463F68D0F814C04CEA010C47EA0C078D
:101CE000DFF8D0C3CCF800700CF104073F68DFF8D0
:101CF000C8C307EA0C07DFF8BCC30CF1040CCCF82E
:101D00000070078B3A0467463F68D0F81CC04CEA65
:101D1000020C47EA0C07DFF89CC30CF1040CCCF86A
:101D200000700CF104073F68DFF88CC307EA0C076A
:101D3000DFF880C30CF1080CCCF80070078C3B0472
:101D400067463F68D0F824C04CEA030C47EA0C070A
:101D5000DFF860C30CF1080CCCF800700CF104073C
:101D60003F68DFF854C307EA0C07DFF848C30CF1FB
:101D70000C0CCCF80070078D3C046746D7F800C007
:101D8000C76A27434CEA070CCA4F0C37C7F800C094
:101D90003F1D3F68DFF824C307EA0C07DFF814C3D0
:101DA0000CF1100CCCF80070D0E9007C47EA0C076D
:101DB000D0F808C047EA0C07D0F80CC047EA0C0777
:101DC000DFF8F0C20CF1100CDCF800C047EA0C0799
:101DD000DFF8E0C20CF1100CCCF80070476B3D024C
:101DE000078E3E04B34F24373F6807F07F47DFF884
:101DF000C4C20CF1240CCCF8007046EA0507D0F8F8
:101E000038C047EA0C07DFF8ACC20CF1240CDCF850
:101E100000C047EA0C07DFF89CC20CF1240CCCF898
:101E20000070F0BD0021016041608160C16001610E
:101E300041618161C161016241628162C16201638C
:101E400041638163704740B19A491031096841F09C
:101E50000101984A1032116007E096491031096873
:101E600021F00101934A10321160704740B191494D
:101E70001031096841F480318E4A1032116007E058
:101E80008C491031096821F480318A4A103211607E
:101E900070470EB5874910310968884A1140854A54
:101EA0001032116011460968C1F302110091114608
:101EB0000968C1F30221019111460968C1F3023199
:101EC00002919DE80E0080E80E000EBD0221016027
:101ED00041608160704777493831086070477549C3
:101EE0001C31086070472DE9F041002400250026D0
:101EF000002200270023B1F804C04FEA0C44D0F8B8
:101F000004C00CF4704CC0F804C0D1F800C04CEA16
:101F1000040CC0F804C0B1F80CC04FEA0C45D0F86E
:101F200008C00CF4704CC0F808C0D1F808C04CEAE6
:101F3000050CC0F808C0D0F810C02CF0070CC0F891
:101F400010C0D1F810C0C0F810C0D1F81CC04FEAC2
:101F50000C26B1F820C04FEA0C4291F824C04FEA99
:101F60000C67D0F818C09C46C0F818C0D1F818C04B
:101F70004CEA060C4CEA020C4CEA070CC0F818C0FC
:101F8000D0F814C02CF0FF0CC0F814C0D1F814C065
:101F9000C0F814C0D0F81CC040F207782CEA080C36
:101FA000C0F81CC0D1E90AC84CEA080CC0F81CC033
:101FB000D0F828C09C46C0F828C0D1F830C0C0F87E
:101FC00028C0B1F838C04FEA0C43D0F82CC00CF050
:101FD000E02CC0F82CC0D1F834C04CEA030CC0F897
:101FE0002CC0D0F830C06FF30A0CC0F830C0D1F864
:101FF0003CC0C0F830C0BDE8F08100210160416004
:102000008160C1600161FF21416100218161C16185
:10201000016241624FF4C06181620721C162002107
:10202000016341638163C163704721B1026842F07B
:102030000102026003E0026822F0010202607047C0
:102040000CB51C493C31096800211A4A3C32116028
:1020500011460968090C00911146096889B201917D
:10206000DDE90012C0E900120CBD002101604160F1
:10207000704701460F4A403212680A400AB10120F7
:1020800000E00020704770B500230024C2B105684D
:1020900045F0020505604D682B020D892C04C568CA
:1020A00005F07F45C560C6680D681D4325432E4376
:1020B000C66009E00868014000F800F08F88FE0F54
:1020C000056825F0020505600125934E356070BD59
:1020D0000021016041608160704721B1026842F0D7
:1020E0001002026003E0026822F010020260012286
:1020F000894B1A60704730B50022002300248D6898
:102100002A028D892B040D782C064D682543154332
:102110001D43056430BD0021016041608160C160E4
:1021200070472DE9F0410B461446D0F8048008F4BE
:102130007048C0F80480D0F8088008F47048C0F8EF
:102140000880DFF8D481A8F11808D8F800104FF003
:10215000010808EB114808EB03051FFA81F808F1A4
:10216000010808EB0406016909B904220EE00129FF
:1021700001D103220AE0042905D0022903D0032952
:1021800001D0072901D1022200E00122C16AC1F376
:102190000C08A8F10308B8FBF2F8A844A8F1010C58
:1021A000016BC1F30A08B044A8F1010745EA0C48E5
:1021B000C0F8048046EA0748C0F80880BDE8F0810E
:1021C00041617047816270472DE9F0430B46144628
:1021D000016909B904220EE0012901D103220AE0B4
:1021E000042905D0022903D0032901D0072901D1F0
:1021F000022200E001224168C1F30C0503EB05084F
:10220000A8F101078168C1F30C0604EB0608A8F1E8
:10221000010C45EA0748C0F8048046EA0C48C0F8BB
:10222000088003FB02F808F1030803FB02F948EAFF
:102230000948C0F82C800463BDE8F08330B503463C
:10224000186908B904220EE0012801D103220AE02E
:10225000042805D0022803D0032801D0072801D183
:10226000022200E00122DC6A200CB0FBF2F009B986
:1022700004220EE0012901D103220AE0042905D03D
:10228000022903D0032901D0072901D1022200E04D
:10229000012200FB02F4E41C00FB02F544EA0544C1
:1022A000DC62196130BD39B11B4A10321268024339
:1022B000194B10331A6006E0174A10321268824335
:1022C000154B10331A60704701460020124A143231
:1022D00012680A400AB1012000E0002070470E4950
:1022E000183108607047014600200B4A143212680A
:1022F0000A400AB1012000E00020074A10321268AB
:102300000A4012B108B1012000E0002070470249E4
:1023100018310860704700002468014010B5044679
:10232000FB48844208D101218014FEF7E5F9002121
:10233000A014FEF7E1F93CE0F648844208D10121FF
:102340000014FEF7C8F900212014FEF7C4F930E0AC
:10235000F148844208D10121C013FEF7BCF90021E5
:10236000E013FEF7B8F924E0EC48844208D10121DB
:102370004014FEF7C1F900216014FEF7BDF918E022
:10238000E748844209D101210805FEF7B5F900218B
:102390004FF48010FEF7B0F90BE0E248844208D118
:1023A00001214805FEF7A8F900214FF40010FEF7BF
:1023B000A3F910BD10B50022028802F441520B8827
:1023C0004C8823438C882343CC8823430C892343A4
:1023D0004C8923438C892343CC8923431A430280AD
:1023E000838B4FF2FF74234083830B8A038210BDDB
:1023F0002DE9F04F0025022300244FF001090022AF
:102400000026002794469046B0F81CA04FF2400BDF
:102410000AEA0B0AA0F81CA04FF0020AA0F820A0BC
:10242000858BD1F808A0BAF1020F01D100BF82E07C
:10243000B1F804A0BAF1000F02D14FF0010901E098
:102440004FF00209DFF8E0A2DAF800A00AF4000A6F
:10245000BAF1000F09D0DFF8D0A2DAF800A02AF410
:10246000000ADFF8C4B2CBF800A0DFF8BCA20AF182
:102470007C0ADAF800A0CAF3881CDFF8ACA20AF1E3
:102480007C0ADAF800A0CAF30278DFF89CA2AAF16D
:10249000040ADAF800A00AF03F07DFF88CA2AAF1DC
:1024A000040ADAF800A00AF4800ABAF5800F08D10D
:1024B000DFF878A2BAFBF7FA0AFB0CFABAFBF8F6D7
:1024C00007E0DFF86CA2BAFBF7FA0AFB0CFABAFBDA
:1024D000F8F6B1F806A0BAF5007F0ED14FEA162A39
:1024E0000AEB8A0A4FEA4A0AD1F808B0BAFBFBFAAB
:1024F0000AF1050A1FFA8AF20FE04FEA491AB6FB01
:10250000FAFA0AEB8A0A4FEA4A0AD1F808B0BAFB8B
:10251000FBFA0AF1050A1FFA8AF24FF00A0AB2FB27
:10252000FAF202F00104A2EB040ACAF34F034FF6D9
:10253000FF7A0AEA0424022B01DBFF2B01DD0223D0
:102540000024B1F806A04AEA040A4AEA030AA0F8FD
:1025500020A0B1F804A0B1F80CB04AEA0B0AB1F817
:1025600002B04AEA0B0AB1F800B04AEA0B0A4AF490
:10257000006A4AEA05058583BDE8F08F00210180E5
:1025800041808180C180018141818181C181072198
:10259000018270470021018041808180C180022139
:1025A000816000218181704721B1028842F04002A0
:1025B000028004E002884FF6BF731A400280704721
:1025C00021B1828B42F48062828304E0828B4FF6D9
:1025D000FF331A408283704702884FF2FF731A401C
:1025E000028002880A4302807047B1F5804F04D10F
:1025F000028842F48042028004E002884BF6FF73B6
:102600001A40028070474FF6FF62914204D0028860
:1026100042F48072028004E002884FF6FF631A40A1
:102620000280704721B1828842F00402828004E077
:1026300082884FF6FB731A408280704721B18288EE
:1026400042F01002828004E082884FF6EF731A4055
:102650008280704730B500220023848B4FF2400502
:102660002C40848302240484828B0C88B4F5007F80
:1026700001D00C8814B94FF4807308E00C88B4F5CD
:10268000407F03D00C88B4F5807F00D100238C8874
:102690008D892C434D882C431C4344F40064224311
:1026A000828330BD0146888970478181704721B19E
:1026B000028842F40052028004E002884DF6FF7363
:1026C0001A4002807047018841F4805101807047B0
:1026D00002460020012901D0108B00E0908A70474B
:1026E0000146088A70471AB183880B43838002E051
:1026F00083888B438380704730B5002400230C11FE
:102700000125A540ABB2AAB185881D43858014E0A0
:102710000030014000380040003C004000340140DF
:1027200000500140005401400838024000127A0075
:102730000024F40085889D43858030BD024600203A
:1027400013890B400BB1012000E000207047CA4301
:1027500002817047F0B502460020002400230025C6
:1027600001F00F070126BE40B4B20B1101269E40B6
:10277000B3B2968806EA03051689264016B10DB154
:10278000012000E00020F0BD10B5002201F00F0490
:102790000123A3409AB2D343038110BD10B58B48E7
:1027A0000068401C894908608948006820B1884851
:1027B0000068401E8649086005F002F8002438E0F1
:1027C000844850F8240090B3824850F82400007BDD
:1027D00068B3804850F82400806840B37D4850F8C2
:1027E00024008068401E7B4951F824108860794895
:1027F00050F824008068D0B9764A52F824205069F5
:10280000744A52F8242011698847724850F824000D
:102810000168704850F8240081606E4850F8240028
:10282000406820B900216B4850F824000173601CF7
:10283000C4B26848001F0078A042C1DC10BD30B5AA
:10284000654800684FF47A72B0FBF2F1481EB0F1AF
:10285000807F01D301201BE0481E4FF0E022506131
:1028600050170F22002807DA13071D0E5B4B00F0EC
:102870000F04241F1D5503E013071C0E584B1C5456
:1028800000BF00204FF0E02290610720106100207F
:1028900008B100BFFEE7504800685249B0FBF1F0B4
:1028A0005149086001205149087030BD4F480078F7
:1028B00000B970474FF0E020006940F002004FF08F
:1028C000E021086100BFF4E74FF0E020006920F04C
:1028D00002004FF0E021086170472DE9F0470546FE
:1028E0000E4617469846DDF820903A48001F0078BB
:1028F000052802DB0020BDE8F087182017F04CFF08
:1029000004460CB90020F6E725602068A0606660E8
:102910002773C4F81080C4F814902E48001F017863
:102920000078401C2B4A121F1070101D40F82140E7
:102930002046E0E72DE9F0410646002407E025485F
:1029400050F82400B04200D106E0601CC4B2214817
:10295000001F0078A042F2DC00BF1E48001F007874
:10296000A04201D1BDE8F0811A4850F8247000BFA0
:10297000EFF31080054672B607E01648611C50F868
:10298000211040F82410601CC4B21248001F0078C7
:10299000401EA042F1DC0F48001F0078401E0D4988
:1029A000091F087005B962B6384617F0CDFE00BFA2
:1029B000D8E7002101737047012101737047016856
:1029C00081607047416070470160704714000020CB
:1029D00018000020B40300209800002018ED00E04B
:1029E00000E400E0C0C62D001C00002020000020F4
:1029F0001CB5032000210B460122CDE90010410344
:102A00001D4800F0A9F84FF4C0401B491A31088056
:102A10001CBD1CB50020022103460246CDE9001072
:102A20000121164800F098F81CBD1448006900F018
:102A3000010080F0010030B91148007830B9012060
:102A40000F490870704700200D4908700020F9E711
:102A50000A48006900F0010080F0010038B1084820
:102A6000007838B100200649087001207047012025
:102A7000034908700020F9E70018024000000240F6
:102A80002100002001464FF40030081AC0F38F20C7
:102A900070472DE9F04304460E461546DDE90789E7
:102AA0002046FFF7EFFFC7B2002243E0012090402D
:102AB000304000B93CE0B14830F8170001219140A6
:102AC0000843AE4921F81700E0684FEA420C0321A1
:102AD00001FA0CF18843510008FA01F10843E06063
:102AE00020684FEA420C032101FA0CF1884351009F
:102AF00005FA01F108432060012D01D0022D16D105
:102B000061680120904080B221EA000003FA02F1DE
:102B100089B208436060A0684FEA420C032101FAC1
:102B20000CF18843510009FA01F10843A06000BF8D
:102B3000501CC2B2102AB9DBBDE8F08300B50246D2
:102B40001046FFF79FFF012101FA00F08C49096848
:102B500008438B49086000BD2DE9FC4305460C463F
:102B600016461F46DDE909890CB9BDE8FC832846F5
:102B7000FFF7E4FF3B46324621462846CDE900896F
:102B8000FFF787FF00BFF0E72DE9FC4705460E463B
:102B900017469846DDE90A9A0EB9BDE8FC87284633
:102BA000FFF7CCFF00241AE00120A040304000B91C
:102BB00014E0E10805F1200050F821006107CA0E79
:102BC0000F21914088436107C90E0AFA01F10843B9
:102BD000E20805F1200141F8220000BF641C102C1E
:102BE000E2D33B46022231462846CDE90089FFF771
:102BF00050FF00BFD1E770B503460C461846FFF7FB
:102C000041FFC5B2002214E001209040204070B185
:102C1000186856000321B14008431860574830F83F
:102C20001500012191408843544921F81500501C9A
:102C3000C2B2102AE8DB70BD30B5024600200BE0BE
:102C4000012383400B402BB1136845000324AC40A3
:102C5000A3431360431CD8B21028F1DB30BD30B55C
:102C6000024600200FE0012383400B404BB1136864
:102C700045000324AC40A34345000124AC4023435A
:102C80001360431CD8B21028EDDB30BD30B50246CE
:102C900000200BE0012383400B402BB1136845005B
:102CA0000324AC4023431360431CD8B21028F1DB4B
:102CB00030BD30B50246002011E0012383400B40B7
:102CC00003B90AE0136845000324AC40A343450060
:102CD0000224AC402343136000BF431CD8B2102829
:102CE000EBDB30BD70B50346002011E001248440C9
:102CF0000C4004B90AE0DC6846000325B540AC434B
:102D0000450002FA05F52C43DC6000BF441CE0B22C
:102D10001028EBDB70BD41F48032C261C161C26139
:102D2000C369C36970470146002002E0421C90B2AB
:102D300049100129FADC704700B502461046FFF73A
:102D4000A1FE012181400E48006888430C490860BB
:102D500000BD00B502461046FFF794FE074931F862
:102D6000100000BD00B502461046FFF78BFE034978
:102D700031F81000C04380B200BD0000C80300203D
:102D80003038024010B501210803FDF708FCFFF7B9
:102D900056FD00F022FE02F022F9022801D00220A6
:102DA00010BD0EF0CFFE08B10320F9E70120354930
:102DB00088710020F4E710B5002000F0CAFEFF2063
:102DC00000F0CEFE00F075FB01202F49087010BD09
:102DD00010B5002000F0C4FEFF2000F0BAFE00F0A5
:102DE00054FB00202849087010BD10B50EF0A6FD58
:102DF00004462648006820B12348007808B100F056
:102E0000D9FE204610BD01460120704710B520486C
:102E10000078401CC0B21E490870322827DB002011
:102E20000870184802F0E9F9164800881949086046
:102E30001448408848601348007908B9012000E030
:102E4000002014490872002048720846007A12498E
:102E50000978884202D11048007840B10D48007AC4
:102E60000D4908700B480FF01FFC0EF067FD0020A5
:102E700010BD10B503F0E7F810BD10B503F0DFF892
:102E800010BD0000240000202C0000203000002095
:102E900034000020E00300203500002070471CB5FE
:102EA00004469CB9042001210B460A46CDE90010D6
:102EB0008101FB48FFF768FE042001210B460A460A
:102EC000CDE90010C101F748FFF75EFE012C0AD1E1
:102ED000042001210B460A46CDE900104FF4C071D1
:102EE000F148FFF751FE032C03D10421EF48FFF70F
:102EF000D5FF1CBD1CB5044654B9042001210B4666
:102F00000A46CDE900104FF44061E948FFF73CFE66
:102F1000012C09D1042001210B460A46CDE90010FD
:102F20000321E448FFF730FE022C09D104200121DF
:102F30000B460A46CDE900103021DB48FFF724FE9E
:102F4000032C03D10421DC48FFF7A8FF1CBD1CB5EE
:102F500004464CB9042001210B460A46CDE9001075
:102F6000C021D348FFF710FE012C0AD10420012113
:102F70000B460A46CDE900104FF44071CC48FFF7EC
:102F800003FE022C0AD1042001210B460A46CDE99A
:102F900000104FF41071C648FFF7F6FD032C03D163
:102FA0000421C648FFF77AFF1CBD7FB504460E46D4
:102FB0001546C248844221D1C148006840F400103F
:102FC000BF4908603046FFF7C2FFBE480068A8420C
:102FD00001D9BC480560BB48006800904FF48040B0
:102FE000ADF80C000020ADF80400ADF80800ADF815
:102FF0000A004BF6FF70ADF8060048E0AE48844288
:1030000021D1AF48006840F48000AD4908603046E7
:10301000FFF770FFAB484068A84201D9A948456056
:10302000A848406800904FF48040ADF80C000020A4
:10303000ADF80400ADF80800ADF80A004BF6FF70DB
:10304000ADF8060023E09948844220D19C480068EE
:1030500040F400009A4908603046FFF720FF994885
:103060008068A84201D9974885609648806800909A
:103070004FF48040ADF80C000020ADF80400ADF82E
:103080000800ADF80A004BF6FF70ADF80600208886
:1030900020F00100208069462046FEF7F8FB2088DA
:1030A00040F0010020807FBD70B50446208820F4E8
:1030B00080602080208840F40070208044F62060EA
:1030C0008149086007E080480068401E7E4908602A
:1030D00008B9012070BD7D492046FEF76FFD00282C
:1030E000F1D0208AC5B22846F4E72DE9F041044624
:1030F0000D4616461F46208840F48070208044F616
:1031000020607149086008E06F480068401E6E4901
:10311000086010B90120BDE8F081A08A00F001002C
:103120000028F1D01FB1208840F480602080A6B92B
:1031300025F00100208244F620606349086007E022
:1031400061480068401E6049086008B90120E2E754
:10315000A08A00F002000028F2D0012E16D145F01E
:103160000100208244F620605749086007E0564875
:103170000068401E5449086008B90120CBE7534954
:103180003E392046FEF71AFD0028F0D0208B0020A3
:10319000C1E7014644F620604B4A106007E04A4808
:1031A0000068401E484A106008B901207047888AAC
:1031B00000F080000028F2D0888A00F00400002887
:1031C000EDD0088840F4007008800020EEE744F657
:1031D00020623D4B1A6004E03B4A1268521E3A4B93
:1031E0001A60828A02F080021AB9374A1268002AED
:1031F000F2D1018270472DE9F04105460E46144692
:1032000000231A4631462846FFF76FFF214628461D
:10321000FFF7DDFF2846FFF7BCFF00230122314600
:103220002846FFF762FF2846FFF73EFF074638466D
:10323000BDE8F08170B50446208840F480602080AD
:1032400044F620602049086007E01F480068401EDF
:103250001D49086008B9012070BD1C492046FEF7D1
:10326000ADFC0028F1D0208AC5B22846F4E72DE94C
:10327000F0410746884615461C46069E012300225B
:1032800041463846FFF731FF29463846FFF79FFF92
:1032900001231A4641463846FFF727FF24E0000085
:1032A0000000024000080240001C0240005C004098
:1032B0000004024000140240005800400054004046
:1032C000403802403C00002038000020400003004D
:1032D0002EB93846FFF7E8FE04F8010B04E0384643
:1032E000FFF7A8FF04F8010B301EA6F101018EB212
:1032F000EED1BDE8F08170B504460D4601231A46B3
:1033000029462046FFF7F1FE2046FFF7CDFE064690
:10331000304670BD2DE9F04106460F4614461D4665
:1033200001231A4639463046FFF7DFFE09E025B98A
:103330003046FFF7B9FE207003E03046FFF77AFF12
:103340002070281EA5F101018DB2F0D1BDE8F081F9
:103350002DE9F04106460F4614461D4600231A4645
:1033600039463046FFF7C1FE21463046FFF72FFFB2
:1033700029463046FFF72BFF3046FFF70AFFBDE82E
:10338000F0812DE9F04106460F4615461C46DDF852
:10339000188000231A4639463046FFF7A6FE294614
:1033A0003046FFF714FF04E014F8011B3046FFF726
:1033B0000EFFB8F10000A8F101011FFA81F8F3D166
:1033C0003046FFF7E6FEBDE8F08170B505460E46D3
:1033D000144600231A4631462846FFF786FE21464A
:1033E0002846FFF7F4FE2846FFF7D3FE70BD2DE90F
:1033F000F04106460F4614461D4600231A4639463C
:103400003046FFF772FE04E014F8011B3046FFF768
:10341000DEFE281EA5F101018DB2F5D13046FFF781
:10342000B8FEBDE8F08170B504460D4600260123C4
:10343000002229462046FFF758FE00B90126204603
:10344000FFF7A7FE304670BD0246108800F040002E
:1034500008B90020704700BF108900F00300002861
:10346000FAD0108900F080000028F5D1918100BFCA
:10347000108900F003000028FAD0108900F08000C5
:103480000028F5D19089C0B2E4E70020FE498860A9
:103490004871704710B501464FF41632002005E020
:1034A000F94B9B68A3F140531952801C9042F7D30B
:1034B00010BD4FF41630F449886001204871704700
:1034C00000B591B01E20019040F20D100290042032
:1034D000039040F24310049002200590FF200690D4
:1034E00000200790089009900A904FF480600B909C
:1034F00005200C9040F2E3100E90C01E0F904FF488
:10350000A07010904FF050400D9001A9DF48FEF7D9
:10351000EAFCDF480D904FF4C0600B9007200C9040
:1035200001A9DA488030FEF7DEFC0120FEF7D7FC67
:103530000121D648FEF779FD0121D4488030FEF7FD
:1035400074FD0120FEF7CBFC0120FEF78FFC01206B
:10355000FEF779FCFF21CD48FEF732FE0021CB4873
:103560008030FEF72DFE0120FEF7B9FC11B000BD42
:1035700000B58FB0C748006840F08060C54908605A
:10358000C4481438006840F40000C2491439086087
:10359000002000900190029003900C900D900E90EE
:1035A00004220721C020FCF7CEFE4FF48030FCF748
:1035B000E9FF0120FCF7D1FE00BF3D20FCF742FEF1
:1035C0000028FAD009200490012005901D200690C3
:1035D0000320079040F20D10089040F2431009902C
:1035E00040F217100A9040F247100B906846FEF721
:1035F0005CFB0FB000BD10B504464FF40050A64967
:1036000008800420A54908802146A548FFF71CFF33
:103610000420A249891E088010BD01B502E000986F
:10362000401E009000980028F9D108BD10B504464E
:103630004FF400509849891E08800420974908805B
:1036400021469748FFF700FF04209449891E08800F
:1036500010BD10B5CA20FFF7CEFFC320FFF7E6FF6D
:103660000820FFF7E3FF5020FFF7E0FFCF20FFF730
:10367000C2FF0020FFF7DAFFC120FFF7D7FF30209D
:10368000FFF7D4FFED20FFF7B6FF6420FFF7CEFF72
:103690000320FFF7CBFF1220FFF7C8FF8120FFF7C1
:1036A000C5FFE820FFF7A7FF8520FFF7BFFF002039
:1036B000FFF7BCFF7820FFF7B9FFCB20FFF79BFF98
:1036C0003920FFF7B3FF2C20FFF7B0FF0020FFF7F2
:1036D000ADFF3420FFF7AAFF0220FFF7A7FFF72076
:1036E000FFF789FF2020FFF7A1FFEA20FFF783FF04
:1036F0000020FFF79BFF0020FFF798FFB120FFF7A6
:103700007AFF0020FFF792FF1B20FFF78FFFB62004
:10371000FFF771FF0A20FFF789FFA220FFF786FF5E
:10372000C020FFF768FF1020FFF780FFC120FFF7E0
:1037300062FF1020FFF77AFFC520FFF75CFF4520EE
:10374000FFF774FF1520FFF771FFC720FFF753FF46
:103750009020FFF76BFF3620FFF74DFFC820FFF7E3
:1037600065FFF220FFF747FF0020FFF75FFFB02063
:10377000FFF741FFC220FFF759FFB620FFF73BFFDD
:103780000A20FFF753FFA720FFF750FF2720FFF77E
:103790004DFF0420FFF74AFF2A20FFF72CFF0020EF
:1037A000FFF744FF0020FFF741FF0020FFF73EFF37
:1037B000EF20FFF73BFF2B20FFF71DFF0020FFF757
:1037C00035FF0020FFF732FF0120FFF72FFF3F20DA
:1037D000FFF72CFFF620FFF70EFF0120FFF726FF73
:1037E0000020FFF723FF0620FFF720FF2C20FFF724
:1037F00002FF2C48FFF711FF2620FFF7FCFE0120F7
:10380000FFF714FFE020FFF7F6FE0F20FFF70EFF93
:103810002920FFF70BFF2420FFF708FF0C20FFF7FC
:1038200005FF0E20FFF702FF0920FFF7FFFE4E20E5
:10383000FFF7FCFE7820FFF7F9FE3C20FFF7F6FECD
:103840000920FFF7F3FE1320FFF7F0FE0520FFF736
:10385000EDFE1720FFF7EAFE1120FFF7E7FE00203C
:10386000FFF7E4FEE120FFF7C6FE0020FFF7DEFED3
:103870001620FFF7DBFE1B20FFF7D8FE0420FFF722
:10388000D5FE112010E00000EC0300208468014008
:10389000005802D0443802401A0C02401A08024074
:1038A0000050014040420F00FFF7C0FE0720FFF725
:1038B000BDFE3120FFF7BAFE3320FFF7B7FE4220EE
:1038C000FFF7B4FE0520FFF7B1FE0C20FFF7AEFEB8
:1038D0000A20FFF7ABFE2820FFF7A8FE2F20FFF7F6
:1038E000A5FE0F20FFF7A2FE1120FFF784FEF74888
:1038F000FFF793FE2920FFF77EFE2C20FFF77BFECB
:1039000010BD1CB5012000210B460246CDE9001078
:103910004103EF48FFF720F9012000210B46024642
:10392000CDE900100421EB48FFF716F90E20032122
:1039300000231A46CDE9001041F65801E648FFF78A
:1039400023F90920032100231A46CDE90010E3489A
:10395000FFF71AF90E20032100231A46CDE90010C3
:103960004FF47061DD48FFF70FF90E2003210023AB
:103970001A46CDE900104FF49861D648FFF704F9D4
:103980000E20032100231A46CDE900104FF489616F
:10399000CF48FFF7F9F80E20032100231A46CDE99E
:1039A00000104FF48061CE48FFF7EEF80E2003219F
:1039B00000231A46CDE900104FF40C61C948FFF707
:1039C000E3F80920032100231A46CDE900104FF443
:1039D000A051C448FFF7D8F81CBD10B5FFF791FF00
:1039E0000420BC49183108800021BF4801F08AF842
:1039F00000F023FEFFF72DFEFFF7BAFDFFF760FD95
:103A00000020BA490880BA490880F020B9490880E6
:103A10004FF4A0704880012008710020887348711D
:103A20008860FF20087300204873FFF72EFD4FF6D3
:103A3000FF70FFF72FFDFFF73CFD4FF6FF70FFF71C
:103A400029FDFFF722FD10BD10B52920FFF7D3FD9A
:103A50000120FEF7F8F910BD10B52820FFF7CBFDC7
:103A60000020FEF7F0F910BD70B5A24C2488844206
:103A700000DC70BD9F4C64888C4200DCF9E79D4CF3
:103A8000A47B64B9C0F596349A4E368806FB11447F
:103A90006600984CA468A4F14054A25330E0954CC1
:103AA000A47B012C0AD1934CA468A4F14054914EFC
:103AB000368806FB010624F8162021E08D4CA47BF5
:103AC000022C0FD10346084640F23F14E41AA1B27B
:103AD000884CA468A4F14054F02606FB010624F8A3
:103AE00016200DE00B460146C3F1EF04A0B2814C55
:103AF000A468A4F14054F02606FB010624F8162021
:103B000000BFB6E77B49887308B1012808D1F021CE
:103B1000784A11804FF4A07151800121117107E0A2
:103B20004FF4A071734A1180F0215180002111716E
:103B3000704710B56F48017B6F48FEF741FB6D4839
:103B4000417B6D488030FEF73BFB0120FEF7C7F953
:103B500010BD10B5044667480473FFF7EAFF10BDB7
:103B600010B5044663484473FFF7E3FF10BD10B57A
:103B70006048407940B9FFF79CFC0020FFF7E9FF5F
:103B8000FF20FFF7EDFF07E0FFF77FFCFF20FFF7C7
:103B9000E0FF0020FFF7E4FF10BD1CB500200090FF
:103BA0004FF4A073F0224FF050410190534803F0BE
:103BB0003BFC1CBD1CB5002000904FF4A073F0220C
:103BC0004E4901904FF0504003F02EFC1CBD2DE9F2
:103BD000F04F0746884691461C46DDF828A0444829
:103BE00007804248A0F800802078414909880844AD
:103BF00040490988884208DD60783C4909880844C2
:103C00003A49088000203A49088000252DE0A9F1B2
:103C10002000617800FB0150616831F810B0002687
:103C20001FE00BFA06F000F4004058B12F4A12884A
:103C30002A4491B22E4A1288324490B2099AFFF770
:103C400013FF0DE00AF0004050B9284A12882A44B8
:103C500091B2274A1288324490B25246FFF704FFCD
:103C6000761C2078B042DCD86D1C6078A842CED893
:103C700020781F49098808441D490880BDE8F08F55
:103C80002DE9FC4705460E4614461F46DDE90A9A13
:103C9000A846174805801548068042E020780A2883
:103CA0002ED17878401C1149098808440F490880B2
:103CB00060780D2804D100200D490880641C02E0C2
:103CC0000B48A0F80080641C2BE0000040420F006D
:103CD000000C0240000802400000024000040240C4
:103CE0000014024000180240005001404A00002029
:103CF00048000020EC03002084680140005802D0F6
:103D000020780D2801D1641C0BE0CDE9009A14F84D
:103D1000012B3B46FE480188FE480088FFF757FF0D
:103D200000BF20780028B9D1BDE8FC8770B5002419
:103D30004D781D8002E00D782544ACB210F8016B7F
:103D4000002EF8D1148070BD2DE9FC4F04460D46BD
:103D500016461F46F0480088A04203DCEE48008863
:103D6000401E84B2EC480088B04203DCEA48008878
:103D7000401E86B2E8484088A84203DCE6484088F6
:103D8000401E85B2E4484088B84203DCE2484088DF
:103D9000401E87B2B44201DA301B00E0A01B0FFACC
:103DA00080FABD4201DA781B00E0E81B0FFA80F8C8
:103DB000B44201DA012001E04FF0FF300190BD4232
:103DC00001DA012001E04FF0FF300090C24501DD33
:103DD000514601E0C8F10001084601EBD0714910DD
:103DE0000FFA81F91FE0294620460B9AFFF73CFEA7
:103DF000B44202D1BD4200D116E0CB46D946CAF149
:103E00000000834506DDA9EB08000FFA80F9019850
:103E1000204484B2C34506DA09EB0A000FFA80F9A0
:103E20000098284485B2DEE700BFBDE8FC8F2DE98D
:103E3000F84105460E4617469846079C33463A46D3
:103E4000314628460094FFF77FFF43462A46314615
:103E500028460094FFF778FF43463A4631463846F5
:103E60000094FFF771FF43463A46414628460094C6
:103E7000FFF76AFFBDE8F8812DE9F84F06460F46C7
:103E800091469846C9F101000FFA80FA4FF0010BF4
:103E90004FEA4900404200B2009000244D465AE0EB
:103EA000BAF1000F09DB681E05B20098801C00B251
:103EB0000090009850440FFA80FA601C04B20BF195
:103EC00002000FFA80FB0AEB0B000FFA80FA08F0F1
:103ED000010068B13A1B91B2721B90B20A9AFFF7C7
:103EE000C3FD7A1B91B2321B90B20A9AFFF7BCFD58
:103EF00008F0020068B17A1B91B2321990B20A9AA6
:103F0000FFF7B2FD3A1B91B2721990B20A9AFFF70D
:103F1000ABFD08F0040068B17A1991B2321990B281
:103F20000A9AFFF7A1FD3A1991B2721990B20A9A52
:103F3000FFF79AFD08F0080068B17A1991B2321BB8
:103F400090B20A9AFFF790FD3A1991B2721B90B2A3
:103F50000A9AFFF789FDAC42A2DBBDE8F88F2DE994
:103F6000F84705460E4617469846DDE90949AF422F
:103F700001D0B04501D1BDE8F8873CB943463A4687
:103F800031462846CDF80090FFF751FFBD4202DDD3
:103F9000BA462F465546464502DDC246B04656460D
:103FA000781B00EBD071B4EB610F04DD781B00EBE4
:103FB000D071C1F34F04A8EB060000EBD071B4EB55
:103FC000610F05DDA8EB060000EBD071C1F34F04D3
:103FD000391B8AB2291988B233463146CDF8009090
:103FE000FFF7B2FEA8EB040083B2301981B22A4673
:103FF0002846CDF80090FFF7A7FEA8EB040083B297
:10400000301981B23A463846CDF80090FFF79CFE51
:10401000391B8AB2291988B243464146CDF800902F
:10402000FFF792FE321911B22A1910B2012322B2FF
:10403000CDF80090FFF720FF321911B23A1B10B2F1
:10404000022322B2CDF80090FFF716FFA8EB04027E
:1040500011B23A1B10B2042322B2CDF80090FFF740
:104060000BFFA8EB040211B22A1910B2082322B2E6
:10407000CDF80090FFF700FF00BF7CE72DE9FE4F71
:1040800004460D4692469946DDF83080CAF101009B
:104090000FFA80FB012002904FEA4A00404200B232
:1040A000019000265746B1E0BBF1000F09DB781EF6
:1040B00007B20198801C00B20190019858440FFA91
:1040C00080FB701C06B20298801C00B2029002981D
:1040D00058440FFA80FB09F0010040B3A5EB070C30
:1040E0001FFA8CF3A4EB060C1FFA8CF2A5EB070C5D
:1040F0001FFA8CF1A0B2CDF80080FFF725FEA5EBEA
:10410000060C1FFA8CF3A4EB070C1FFA8CF205E0E7
:104110004A00002048000020EC030020A5EB060C1C
:104120001FFA8CF1A0B2CDF80080FFF70DFE09F068
:10413000020008B3A5EB070C1FFA8CF3A2B2A5EBA3
:10414000070C1FFA8CF104EB060C1FFA8CF0CDF86B
:104150000080FFF7F9FDA5EB060C1FFA8CF3A2B265
:10416000A5EB060C1FFA8CF104EB070C1FFA8CF080
:10417000CDF80080FFF7E8FD09F0040008B305EB77
:10418000070C1FFA8CF304EB060C1FFA8CF205EBFC
:10419000070C1FFA8CF1A0B2CDF80080FFF7D4FD18
:1041A00005EB060C1FFA8CF3A2B205EB060C1FFA06
:1041B0008CF104EB070C1FFA8CF0CDF80080FFF7B0
:1041C000C3FD09F0080008B305EB070C1FFA8CF3D8
:1041D000A2B205EB070C1FFA8CF1A4EB060C1FFA38
:1041E0008CF0CDF80080FFF7AFFD05EB060C1FFA51
:1041F0008CF3A4EB070C1FFA8CF205EB060C1FFAEC
:104200008CF1A0B2CDF80080FFF79EFDBE42FFF614
:104210004BAFBDE8FE8F2DE9F84106460C46174628
:104220001D46DDF81C8009E023463A46214630460B
:10423000CDF80080FFF788FD601C84B2AC42F3DD4E
:10424000BDE8F8812DE9F84705460E461746984621
:10425000DDE90949AF4201D0B04501D1BDE8F88799
:104260003CB943463A4631462846CDF80090FFF720
:10427000D2FFBD4202DDBA462F465546464502DD15
:10428000C246B0465646781B00EBD071B4EB610FC6
:1042900004DD781B00EBD071C1F34F04A8EB0600DE
:1042A00000EBD071B4EB610F05DDA8EB060000EB6D
:1042B000D071C1F34F04391B8AB2291988B2434621
:1042C0003146CDF80090FFF7A6FFA8EB040083B2BB
:1042D000281982B2301981B22846CDF80090FFF734
:1042E0009AFFA8EB040293B2321991B23A1B90B232
:1042F0003A46CDF80090FFF78EFF321911B22A1915
:1043000010B2012322B2CDF80090FFF7B7FE3219A8
:1043100011B23A1B10B2022322B2CDF80090FFF77F
:10432000ADFEA8EB0402521E11B23A1B10B20423D8
:1043300022B2CDF80090FFF7A1FEA8EB0402521EB6
:1043400011B22A1910B2082322B2CDF80090FFF75B
:1043500095FE00BF82E72DE9FF4F05460E469046C9
:10436000C8F101000FFA80F94FF0010A4FEA480046
:1043700040420FFA80FB0027444606EB080291B248
:10438000A8B2039AFFF770FBA6EB080291B2A8B29D
:10439000039AFFF769FBB1B205EB080290B2039AEA
:1043A000FFF762FBB1B2A5EB080290B2039AFFF7E8
:1043B0005BFB4EE0B9F1000F09DB601E04B20BF1AC
:1043C00002000FFA80FB09EB0B000FFA80F9781C52
:1043D00007B20AF102000FFA80FA09EB0A000FFA9D
:1043E00080F9321991B2EA1990B2039AFFF73CFBB7
:1043F000321991B2EA1B90B2039AFFF735FB321BD8
:1044000091B2EA1990B2039AFFF72EFB321B91B2D8
:10441000EA1B90B2039AFFF727FBF21991B22A190F
:1044200090B2039AFFF720FBF21991B22A1B90B2C7
:10443000039AFFF719FBF21B91B22A1990B2039A63
:10444000FFF712FBF21B91B22A1B90B2039AFFF7FF
:104450000BFBA742AEDBBDE8FF8F2DE9FC4F054605
:104460000E4617469946C7F101000FFA80FA4FF041
:10447000010B7800404200B201904FF000083C462A
:10448000F21991B2A8B24A46FFF7EEFAF21B91B2C6
:10449000A8B24A46FFF7E8FAB1B2EA1990B24A4622
:1044A000FFF7E2FAB1B2EA1B90B24A46FFF7DCFA34
:1044B000B3B205EB070C1FFA8CF2B1B2A5EB070CF7
:1044C0001FFA8CF0CDF80090FFF73EFC68E0BAF1DF
:1044D000000F09DB601E04B20198801C00B201903D
:1044E000019850440FFA80FA08F101000FFA80F8A1
:1044F0000BF102000FFA80FB0AEB0B000FFA80FAB7
:1045000006EB040C1FFA8CF305EB080C1FFA8CF277
:1045100006EB040C1FFA8CF1A5EB080C1FFA8CF0CB
:10452000CDF80090FFF710FCA6EB040C1FFA8CF3FB
:10453000A5EB080C1FFA8CF2A6EB040C1FFA8CF109
:1045400005EB080C1FFA8CF0CDF80090FFF7FCFB90
:1045500006EB080C1FFA8CF3A5EB040C1FFA8CF287
:1045600006EB080C1FFA8CF105EB040C1FFA8CF01B
:10457000CDF80090FFF7E8FBA6EB080C1FFA8CF3D0
:10458000A5EB040C1FFA8CF2A6EB080C1FFA8CF1B9
:1045900005EB040C1FFA8CF0CDF80090FFF7D4FB6C
:1045A000A04594DBBDE8FC8F002070471CB5FFF7E9
:1045B000FBFF00B11CBD0C20032100231A46CDE9EE
:1045C000001060218448FEF7DFFA0C20032100234D
:1045D0001A46CDE9001001218048FEF7D5FA0C20DB
:1045E000032100231A46CDE900104CF203717C48E8
:1045F000FEF7CAFA0C20032100231A46CDE9001069
:104600004FF683717748FEF7BFFA0C200321002391
:104610001A46CDE900104FF63F017348FEF7B4FA91
:104620000C20032100231A46CDE9001048F2331173
:104630006E48FEF7A9FA00BFBCE700B597B04FF689
:10464000FF7000906A48007810B1012017B000BDDB
:10465000FFF7ACFF6748006840F00100654908605B
:10466000022005900720069004200790072008905C
:10467000022009900A900B9001200C9000200D90D0
:1046800004200E9010200F90402010904FF4C07026
:10469000119000201290C8141390002014904FF431
:1046A0000050159005A816900CA8FCF7ADFE01204F
:1046B00001900820029001200390002004904FF602
:1046C000FF70009002E00098401E00902021012021
:1046D000FDF702F810B100980028F4D101A8FCF70A
:1046E00054FF4548009000BF0098411E00910028EB
:1046F000FAD10220019008200290012003900020AE
:1047000004904FF6FF70009002E00098401E009069
:1047100020210120FCF7E0FF10B100980028F4D11F
:1047200001A8FCF732FF03200190082002900390BB
:10473000002004904FF6FF70009002E00098401EA9
:10474000009020210120FCF7C7FF10B1009800283D
:10475000F4D101A8FCF719FF042001900820029071
:104760000120039040F2312004904FF6FF7000903A
:1047700002E00098401E009020210120FCF7ACFFD1
:1047800010B100980028F4D101A8FCF7FEFE4FF408
:104790002A70FCF719FF4FF6FF70009002E00098B6
:1047A000401E009020210120FCF796FF10B10098D8
:1047B0000028F4D14520114908704FF0504090F87E
:1047C0005000452803D10120094908703EE7002028
:1047D0000749087000BF39E70004024000080240A2
:1047E000000C024000100240001402400018024079
:1047F0004C00002038380240F0FE0F01500000D07D
:1048000070471CB5044654B90520032100231A46FD
:10481000CDE900104FF4E041FE48FEF7B5F9032C56
:1048200003D10521FC48FFF7EBFF1CBD1CB5044676
:1048300054B90520032100231A46CDE900104FF496
:104840006071F648FEF7A0F9012C13D10520032171
:1048500000231A46CDE90010E102F048FEF794F972
:104860000520032100231A46CDE90010C021EC48A1
:10487000FEF78AF9032C03D10521EA48FFF7C0FFB0
:104880001CBD1CB504464CB90520032100231A4663
:10489000CDE900106421E448FEF776F9012C0AD135
:1048A0000520032100231A46CDE900104FF4E04112
:1048B000DD48FEF769F9032C03D10521DB48FFF73A
:1048C0009FFF1CBD1CB504464CB9062003210023E4
:1048D0001A46CDE900103821D548FEF755F9012CCC
:1048E0000AD10620032100231A46CDE900104FF417
:1048F000E051D048FEF748F9032C03D10621CE48F9
:10490000FFF77EFF1CBD1CB50446A4B9052003219A
:1049100000231A46CDE900104FF48061C448FEF729
:1049200033F90520032100231A46CDE900100C219C
:10493000C048FEF729F9012C0AD1052003210023E4
:104940001A46CDE900104FF46041B948FEF71CF952
:10495000022C09D10520032100231A46CDE90010BD
:104960000D21B648FEF710F9032C03D10521B448F8
:10497000FFF746FF1CBD1CB504464CB905200321BA
:1049800000231A46CDE90010E021AE48FEF7FCF8FE
:10499000012C09D10520032100231A46CDE900107E
:1049A0003821A348FEF7F0F8032C03D10521A648CF
:1049B000FFF726FF1CBD2DE9F04385B004460E46E7
:1049C00015461F46DDE90C896846FDF7D7FD9E4870
:1049D00084420BD19D48006840F480509B49086098
:1049E0003046FFF7C8FF0020ADF804009448844229
:1049F0000DD19648001F006840F480409349091F7C
:104A000008603046FFF77FFF0020ADF804008A48B9
:104A100084420DD18D48001F006840F400408B494E
:104A2000091F08603046FFF74DFF0020ADF8040075
:104A30007E4884420BD18548006840F40050834989
:104A400008603046FFF71DFF0020ADF804007548F0
:104A500084420BD17D48006840F480107B49086097
:104A60003046FFF7E3FE0020ADF804006A488442B8
:104A70000BD17648006840F4001074490860304655
:104A8000FFF7BFFE0020ADF80400ADF80C70002069
:104A9000ADF80000ADF80E90ADF802804FF4007054
:104AA000ADF80A002DB90020ADF80600ADF80800F9
:104AB00019E0012D06D10020ADF806000120ADF867
:104AC000080010E0022D06D10220ADF806000020FB
:104AD000ADF8080007E0032D05D10220ADF806006F
:104AE0000120ADF80800208820F0400020806946B1
:104AF0002046FDF75FFC208840F04000208005B094
:104B0000BDE8F0837CB504460D464F4884420AD187
:104B100000204FF4827120230246CDE9001029467F
:104B20002046FFF748FF464884420AD100204FF450
:104B3000827120230246CDE9001029462046FFF766
:104B40003AFF3D4884420AD100204FF4827120236D
:104B50000246CDE9001029462046FFF72CFF3348D6
:104B600084420AD100204FF4827120230246CDE90D
:104B7000001029462046FFF71EFF2A4884420AD12A
:104B800000204FF4827120230246CDE9001029460F
:104B90002046FFF710FF204884420AD100204FF43E
:104BA000827120230246CDE9001029462046FFF7F6
:104BB00002FF7CBD7CB504460D4616462248844261
:104BC0000AD100204FF4827120233246CDE9001033
:104BD00029462046FFF7EFFE194884420AD10020FB
:104BE0004FF4827120233246CDE900102946204639
:104BF000FFF7E1FE104884420AD100204FF4827191
:104C000020233246CDE9001029462046FFF7D3FE87
:104C100006481DE000180240005401400014024004
:104C2000001C0240005001400010024000340140CE
:104C30000004024000080240003C00400020024006
:104C4000003800400000024000300140443802407B
:104C500084420AD100204FF4827120233246CDE9EC
:104C6000001029462046FFF7A6FECB4884420AD111
:104C700000204FF4827120233246CDE900102946EE
:104C80002046FFF798FEC54884420AD100204FF421
:104C9000827120233246CDE9001029462046FFF7D5
:104CA0008AFE7CBD2DE9FC47044689461746984696
:104CB000DDE90A56BA48844206D13B464246494697
:104CC000CDE90056FFF777FEB648844206D13B4651
:104CD00042464946CDE90056FFF76DFEB248844290
:104CE00006D13B4642464946CDE90056FFF763FEF2
:104CF000AE48844206D13B4642464946CDE900567D
:104D0000FFF759FEA448844206D13B464246494635
:104D1000CDE90056FFF74FFEA048844206D13B463E
:104D200042464946CDE90056FFF745FEBDE8FC87FF
:104D30002DE9FF4104460E461EB9382004B0BDE8F7
:104D4000F0816846FBF75AFB9548844208D09748A3
:104D5000844205D09048844202D09048844201D1D8
:104D6000039F00E0029F00250AE0681C01218140AA
:104D7000B7FBF1F0B04201D8E800DFE7681CC5B22C
:104D8000082DF2DB3820D9E702461388C3F3C02090
:104D9000138823F040031380012904D1138843F4BE
:104DA0000063138003E0138823F4006313801388E7
:104DB00043F040031380704730B50C46058805F07A
:104DC000400505B930BD00BF058905F00305002D7C
:104DD000FAD0058905F08005002DF5D100210FE0FE
:104DE000655C858100BF058905F00305002DFAD0BB
:104DF000058905F08005002DF5D185895554491C9C
:104E00009942EDD300BFDDE710B50B46048804F0EE
:104E1000400404B910BD00BF048904F00304002C51
:104E2000FAD0048904F08004002CF5D100210EE0B2
:104E30005C5C848100BF048904F00304002CFAD078
:104E4000048904F08004002CF5D18489491C914226
:104E5000EED300BFDEE730B50C46058805F040050F
:104E600005B930BD00BF058905F00305002DFAD056
:104E7000058905F08005002DF5D100210EE0828125
:104E800000BF058905F00305002DFAD0058905F05E
:104E90008005002DF5D185896554491C9942EED3D2
:104EA00000BFDEE730B50C46058805F0400505B9C2
:104EB00030BD00BF058905F00305002DFAD0058936
:104EC00005F08005002DF5D1002111E034F81150D6
:104ED000858100BF058905F00305002DFAD00589FD
:104EE00005F08005002DF5D1858922F81150491C67
:104EF0009942EBD300BFDBE710B50B46048804F002
:104F0000400404B910BD00BF048904F00304002C60
:104F1000FAD0048904F08004002CF5D100210FE0C0
:104F200033F81140848100BF048904F00304002C8D
:104F3000FAD0048904F08004002CF5D18489491C3E
:104F40009142EDD300BFDDE730B50C46058805F092
:104F5000400505B930BD00BF058905F00305002DEA
:104F6000FAD0058905F08005002DF5D100210FE06C
:104F7000828100BF058905F00305002DFAD005895F
:104F800005F08005002DF5D1858924F81150491CC4
:104F90009942EDD300BFDDE70050014000540140CD
:104FA0000030014000380040003C00400034014027
:104FB00008B5D6490968009106E04FF0E02109697B
:104FC00001F4803101B1401E0028F6D108BD10B5B2
:104FD000044622468221CE48FEF70DF910BD1CB5CD
:104FE000FDF72DFCCB4A0021C948FDF7DEFF022367
:104FF00003228221C648FEF7ABF90520FFF7D8FF50
:10500000002303228221C248FEF7A2F90220FFF703
:10501000CFFF022001AB002282210090BC48FEF7A6
:1050200026F99DF805009DF8041040EA012040F69D
:105030001101884201D003201CBD022303228221DA
:10504000B348FEF785F90520FFF7B2FF00230322DE
:105050008221AF48FEF77CF90220FFF7A9FF042068
:10506000FFF7B5FF044624F0010423460422822101
:10507000A748FEF76DF90420FFF7A9FF044624F0C6
:105080000204234604228221A148FEF761F9492344
:10509000202282219E48FEF75BF90220FFF788FF5D
:1050A0000123212282219A48FEF752F91720FFF7A7
:1050B0008EFF044644F01E042346172282219448A2
:1050C000FEF746F99A23412282219148FEF740F9E2
:1050D00001234A2282218E48FEF73AF901234B220E
:1050E00082218B48FEF734F900234B228221884825
:1050F000FEF72EF90123562282218548FEF728F972
:105100000123582282218248FEF722F903234022FC
:1051100082217F48FEF71CF9FF230B2282217C4865
:10512000FEF716F90220FFF743FF022084E7F8B5E7
:1051300005464F20FFF74BFF8DF801005020FFF789
:1051400046FF8DF800009DF801109DF8000061F306
:105150001F2004B2A4F5B47004B20B2094FBF0F04D
:1051600004B2002C01DC002404E0B4F5A07F01DBD4
:1051700040F23F14AC4201DD601B00E0281B06B288
:10518000042E01DDA0B2F8BD2846FCE7F8B50546BF
:105190004D20FFF71CFF8DF801004E20FFF717FF91
:1051A0008DF800009DF801109DF8000061F31F20AC
:1051B00004B240F6B830844204DC40F63C70001B78
:1051C00004B203E040F6D860001B04B20F2094FB49
:1051D000F0F004B2EF2C01DDEF2402E0002C00DA45
:1051E0000024AC4201DD601B00E0281B06B2042E47
:1051F00001DDA0B2F8BD2846FCE770B50446207971
:1052000060714020FFF7E3FE054605F0800078B9A5
:105210000120207101234B2282213D48FEF798F89E
:1052200000234B2282213A48FEF792F8012070BDFC
:10523000A07968B92088FFF7A9FFC0F1EF002080AE
:105240006088FFF774FF40F23F11081A608027E082
:10525000A079012808D12088FFF798FF2080608876
:10526000FFF765FF60801BE0A07902280BD1608802
:10527000FFF78CFF60802088FFF759FF40F23F1155
:10528000081A20800CE0A079032809D12088FFF7B4
:105290007DFFC0F1EF0060802088FFF748FF20808D
:1052A00001234B2282211A48FEF752F800234B2299
:1052B00082211748FEF74CF8A07910B1A079012897
:1052C0000FD1208800281CDD2088EF2819DA60889B
:1052D000002816DD6088B0F59F7F12DC0020207169
:1052E000A5E7208800280CDD2088B0F59F7F08DC2A
:1052F0006088002805DD6088EF2802DA0020207130
:1053000095E70120207100BF91E700001400002004
:10531000005C0040A086010008B568460AF042F82B
:1053200008BD38B504466A460021204609F08EFEC5
:1053300038BD10B54FF4C8313D480BF09DFE10BD8F
:1053400010B50120FFF7EDFF10BD08B56B46012237
:1053500038A13A4807F0CFFC6B46002238A13B4801
:1053600007F0C9FC08BD1CB501A800231A46194660
:105370000090324807F0A5FD1CBD08B56A46002123
:105380002E4807F072FF08BD3148006890F83700DA
:1053900070471CB501A800231A46194600902B48F7
:1053A00007F08FFD1CBD08B56A460021274807F0AD
:1053B0005CFF08BD08B56B46002226A1274807F010
:1053C0009AFC08BD10B52648007820B90120244970
:1053D0000870FFF7EFFF10BD10B522480468FFF713
:1053E000F1FF00201F490860204610BD1CB5FFF7E3
:1053F000E9FF1C48006838B901A800231A4619467D
:105400000090124807F05DFD164804680020154919
:10541000086020461CBD38B50446124804606A4640
:1054200000210E4807F021FF38BD704770477047D4
:10543000FC0300204469737053656D00FC930120E8
:105440004576656E7453656D00000000249401205C
:105450007C0100204B657953656D00004C94012060
:10546000540000205000002010B5002807DA0A0779
:10547000140EFB4A00F00F031B1FD45403E00A076D
:10548000130EF84A135410BD70B5049C0125F64E56
:1054900035604FF48135F54E35603546E860E96397
:1054A0000025356135643546EA616B63012505EBFE
:1054B0000445756435462D6845F00105356000BF2B
:1054C000EA4D2D6805F00105002DF9D170BD30B50C
:1054D00003460124E44D2C6000BF01CB00F47F445F
:1054E000C5B244EA0544C0F307452C4300F07F45AC
:1054F00085F07F452C4310C1541E221EEDD130BDD6
:105500002DE9F84305460E4614469846089F0120AB
:10551000D54908602246D6492846FFF7D8FF3B46C2
:1055200000223146D2480094FFF7AEFFBDE8F88371
:10553000F8B504460D4616461F4600203B46324647
:10554000294600902046FFF7DBFFF8BD2DE9F84320
:1055500005460E4614469846089F0120C249086039
:1055600000233A46C24928460094FFF78DFF2246A1
:105570003146BF48FFF7ABFFBDE8F883F8B50446F6
:105580000D4616461F4600203B46324621460090F7
:105590002846FFF7DBFFF8BDF8B504460D46164672
:1055A0001F4600203B463246294600902046FFF722
:1055B000A7FFF8BDF8B504460D4616461F46002065
:1055C0003B463246214600902846FFF7BFFFF8BD14
:1055D000F8B504460D4616461F4602203B463246A5
:1055E000294600902046FFF78BFFF8BDF8B504462A
:1055F0000D4616461F4602203B4632462146009085
:105600002846FFF7A3FFF8BDF8B504460D46164639
:105610001F4603203B463246294600902046FFF7AE
:105620006FFFF8BDF8B504460D4616461F46032029
:105630003B463246214600902846FFF787FFF8BDDB
:10564000F8B504460D4616461F4604203B46324632
:10565000294600902046FFF753FFF8BDF8B50446F1
:105660000D4616461F4604203B4632462146009012
:105670002846FFF76BFFF8BD024601207A4B186001
:105680000AB1002070477B4850F822107A488142C6
:1056900001D10020F6E77948814201D10120F1E7EC
:1056A0007748814201D10220ECE77648814201D15E
:1056B0000320E7E77448814201D10420E2E7734800
:1056C000814201D10520DDE77148814201D10620E8
:1056D000D8E77048814201D10720D3E700BFFEE739
:1056E0002DE9F04105460C4601205F490860284637
:1056F0000EF09EF9074607FB04F1C81DC11700EB29
:105700005171CE103046BDE8F0810122564B1A602F
:10571000564AD0624A1ED2B2012343EA0222534BB8
:10572000DA611A46D26942F02002DA61704730B578
:1057300001244D4D2C6000BF08C883F07F4410C188
:10574000541E221EF8D130BD30B50124464D2C60C8
:10575000514C464D2C602C46E0606161E2630024B0
:105760002C61AC612C64EC616C626C63012404EB11
:1057700003446C642C46246844F001042C6000E06F
:1057800030BF3A4C246804F00104002CF8D130BD3D
:105790001EB503460120344C206001F07F40B0F17B
:1057A0007F4F01D118461EBD83F07F40029081F0EB
:1057B0007F40019038482D4C206002A8E06001A88D
:1057C0006061C4F83CD04FF4803040EA0260E06190
:1057D000C2F1FF00002444EA0060244C6062002013
:1057E00060634FF0011060642046006840F00100E3
:1057F000206000E030BF1D48006800F00100002874
:10580000F8D1009880F07F40CDE72DE9F0410446C3
:105810000D4617464FF00008012013490860E8883C
:10582000082813D1252138460EF016F9064656B140
:10583000E86828B1E868007950B14FF0010807E046
:105840004FF0010804E04FF0010801E04FF00108BB
:10585000B8F1000F22D020460EF075F9BDE8F081B6
:1058600018ED00E000E400E03000002000B002404D
:10587000749401207400002050AC010870AC010841
:1058800038AC010808AC010820AC0108D8AB01080D
:10589000C0AB0108F0AB010800020200FE4922681B
:1058A000A068FFF714FEFC482168FFF72EFFFA48B6
:1058B000BDE8F08170B5049C0125F84E3560F84DC7
:1058C000F84E35603546E8606961EA634FF480352B
:1058D00045EA0365F561C3F1FF05002646EA056563
:1058E000F04E756200257563012505EB044575646E
:1058F00035462D6845F00105356000BFE94D2D683E
:1059000005F00105002DF9D170BD2DE9F0410746E4
:105910000C4615461E460120E04908603246E24921
:105920003846FFF704FF3246E0492046FFF7FFFE06
:105930003346D94ADD49DC48FFF706FF324629469F
:10594000D548FFF7F4FEBDE8F0812DE9F84F074692
:105950000D4616469846DDE90AAB0C9C0120CF495E
:1059600008604FF0000923E02246CF493846FFF790
:10597000DEFE2246CD492846FFF7D9FE0094C64AEE
:10598000CA49C9480E9BFFF795FF22463146C248D7
:10599000FFF7CDFE04EB080007EB800704EB0A00DD
:1059A00005EB800504EB0B0006EB800609F101090D
:1059B0000D988145D8D3BDE8F88F0122B74B1A6006
:1059C00021B1026842F00202026003E0026822F0A4
:1059D000020202600222B64B1A60704721B10268CF
:1059E00042F01002026003E0026822F0100202603E
:1059F0000222AF4B1A6070472DE9F84F04460D465E
:105A000016460120A549086020460EF08DF807468D
:105A100020460EF095F8804605F11E0905F11D009F
:105A200000EB070A06F1040BF01C40440090A1486B
:105A300050F82400406800F470409E4951F824104A
:105A4000486049EA0A409B4951F824104860994847
:105A500050F82400806800F47040964951F82410F2
:105A6000886000984BEA0040924951F82410886001
:105A70000220FCF734FABDE8F88F70B504460D46F5
:105A80000120864908608B4850F82400406920F0C6
:105A9000FF00884951F824104861C5F1FF0085498D
:105AA00051F8241048610120FCF719FA70BD2DE966
:105AB000F04704460D46164601207849086028063E
:105AC000070AC5F307204FEA0028C5F307494FEA44
:105AD000066A784850F82400006C0020754951F897
